:100000000A128A1112280800FE00030E8316031339
:10001000A4000408A5000A08A6007F08A7000A1289
:100020008A150A2C0A128A1115288313E130FD0063
:100030001230FE00A030FF00D33084000A168A116F
:10004000D4220A128A11831790308400C1300A1614
:100050008A116F220A128A118313C0308400D330B0
:100060000A168A116F220A128A1183010A128A154E
:10007000A02CFF0000308A007F0882073E280A1269
:100080008A11FF2EFF0000308A007F088207472870
:100090000A128A11032883120313D300403084000C
:1000A0009030BC000408BD001130BE003C08840044
:1000B00083170008BF00BC0A3D08840083133F0873
:1000C0008000BD0ABE0B5628C72A0A168A110F23C4
:1000D0000A128A1183160313510883120313BC00FA
:1000E0003C07D33E840083130008F300840A000811
:1000F0008403F4000A168A1106270A128A11E92AD3
:100100008B16E92A8B16E92A0A168A110F230A127E
:100110008A1108300A168A11F8220A128A118312EB
:100120000313D1005108031D96289728A128E63013
:10013000F3008730F4000A168A1106270A128A1182
:10014000E92A00300A168A11F8220A128A1183124B
:100150000313D2000330F00052080A168A11E3227A
:100160000A128A11023E2E3E840087300318013E97
:1001700083120313FF000A128A1100270A128A1140
:10018000D6005608F0008316031350080A168A1189
:10019000E3220A128A1183120313BC003C070E3EAD
:1001A000D700E101532957080A168A11BE230A1203
:1001B0008A11720883120313D5007108D4000A3023
:1001C000F0000030F1005508F3005408F2000A1660
:1001D0008A117C260A128A11710883120313DE0029
:1001E0007008DD000A30F7000030F8005508FA000A
:1001F0005408F9000A168A118A250A128A11780809
:1002000083120313E0007708DF005030AF0088301E
:10021000B0006108013EB100003003180130B200A7
:100220005E08B4005D08B3006008B6005F08B50062
:1002300040300A168A1177230A128A110314831296
:100240000313610D443E840087300318013EFF0014
:100250000A128A1100270A128A11F2006108BC00F2
:100260003C07443E840087300318013EFF000A1219
:100270008A1100270A128A110A168A118D240A127D
:100280008A114030F3000030F4000A168A11062764
:100290000A128A11831203135708023ED700013055
:1002A000FF007F08E10756086102031C58295929FD
:1002B000D328E92A0A168A110F230A128A11063056
:1002C0000A168A11BE230A128A11720883120313B6
:1002D000D9007108D80004300A168A11BE230A1208
:1002E0008A11720883120313DB007108DA005808C0
:1002F0005904031D7C297D298F295A0A031D84294D
:100300005B0A031D84298529E92AE630F30087303A
:10031000F4000A168A1106270A128A11E92A0A30FD
:10032000F0000030F1005908F3005808F2000A16F6
:100330008A117C260A128A11710883120313DE00C7
:100340007008DD000A30F7000030F8005908FA00A4
:100350005808F9000A168A118A250A128A117808A3
:1003600083120313E0007708DF003330AF008830DA
:10037000B0005E08B2005D08B1006008B4005F081C
:10038000B30040300A168A1177230A128A114030CE
:10039000F3000030F4000A168A1106270A128A11A7
:1003A000F20102300A168A118D240A128A110A30CB
:1003B000F0000030F100831203135B08F3005A08C9
:1003C000F2000A168A117C260A128A117108831219
:1003D0000313DE007008DD000A30F7000030F8007B
:1003E0005B08FA005A08F9000A168A118A250A12CF
:1003F0008A11780883120313E0007708DF002930A0
:10040000AF008830B0005E08B2005D08B10060083F
:10041000B4005F08B30040300A168A1177230A122D
:100420008A114030F3000030F4000A168A110627C2
:100430000A128A11E92AF00108300A168A1160248A
:100440000A128A11F00100300A168A1160240A1279
:100450008A110030F200F30002300A168A11BD2220
:100460000A128A11FF30F200FF30F30004300A163E
:100470008A11BD220A128A110030F200F300063000
:100480000A168A11BD220A128A1183120313DC0193
:10049000F0015C080E3E0A168A1160240A128A11C5
:1004A0000130FF007F0883120313DC07C8305C02B1
:1004B000031C5B2A5C2A482A0A168A110F230A1297
:1004C0008A11F230F3008730F4000A168A110627E9
:1004D0000A128A11E92A0A168A110F230A128A11AE
:1004E000831603134B0883120313BC00013003105F
:1004F000BC0DFF3E031D772A03103C0D123E840005
:1005000087300318013EFF000A128A1100270A12E1
:100510008A11BD000A128A1100270A128A11BE0030
:100520003D08F3003E08F4000A168A1106270A1255
:100530008A11E92A0A168A110F230A128A11033036
:10054000F000831603134F080A168A11E3220A12D9
:100550008A112E3E840087300318013E8312031354
:10056000FF000A128A1100270A128A11BC000A121F
:100570008A1100270A128A11BD003C08F3003D08C9
:10058000F4000A168A1106270A128A11E92A53086A
:10059000BC00BD013D08003A0319CF2AE92A3C08F6
:1005A000013A03196528033A03198028013A03190F
:1005B0008228073A03198428013A03195A29033A71
:1005C00003191B2A013A03196B2A0F3A03199A2AB5
:1005D000E92A83120313530883160313D200080079
:1005E000052D253049060319F62AF72A492B8316CB
:1005F00003133908013E83160317C1008316031342
:100600003A080318013E003E83160317C200410852
:1006100084008317421C831300080319102B112B2D
:100620002F2B490883160313AD003908013E8316AA
:100630000317C100831603133A080318013E003E56
:1006400083160317C200410884008317421C8313DA
:1006500000080A128A1139200A128A11F02A831618
:1006600003133908840083173A1C8313000884009D
:10067000831603174908831380000130FF00831697
:1006800003133908840083173A1C83137F088007FB
:10069000F02AC6014D2B4617872B831603133C08FF
:1006A00083160317C200831603133B088316031730
:1006B000C10083160313BB0A0319BC0A8316031770
:1006C000420883120313FF008316031741088400B6
:1006D000831203130A128A1100270A128A11831641
:1006E0000317C900C300C4014408003A0319792B59
:1006F000052D4308003A03192F2D643A0319872B5F
:100700000D3A0319872B1C3A03194B2B052D461B59
:100710008A2B8B2BB72B831603133D08840083177A
:100720003E1C8313000883160317C10002308007A4
:10073000840A0008C20000300318800A80074108BC
:1007400084008317421C83130008C700840A000832
:10075000C800C81FAC2BAD2BD52B0330FF007F0882
:10076000C604C709C809C70A0319C80AD52B8316C6
:1007700003133D08840083173E1C8313000883166F
:100780000317C10002308007840A0008C20000304D
:100790000318800A8007410884008317421C8313D2
:1007A0000008C700840A0008C800C901C90A49082E
:1007B000C10041073A3E840087300318013E83128E
:1007C0000313FF000A128A1100270A128A118316E6
:1007D0000317C200831203130A128A1100270A1298
:1007E0008A1183160317C30043084802031DFA2B1E
:1007F000420847020318FD2BFE2BFF2B092C01306A
:10080000FF007F08C90705304906031D082C092C85
:10081000D72B4608033903190E2C0F2C5C2C83169A
:1008200003133908013E83160317C100831603130F
:100830003A080318013E003E83160317C200410820
:1008400084008317421C831300080319282C292CC9
:10085000472C2D3083160313AD003908013E831653
:100860000317C100831603133A080318013E003E24
:1008700083160317C200410884008317421C8313A8
:1008800000080A128A1139200A128A115C2C831678
:1008900003133908840083173A1C8313000884006B
:1008A0002D30831380000130FF0039088400831746
:1008B0003A1C83137F088007831603174908C50075
:1008C000FA2C0A3083160313B4000030B5008316E7
:1008D00003174508C10041073A3E840087300318DA
:1008E000013E83120313FF000A128A1100270A1225
:1008F0008A1183160313AD00831203130A128A119F
:1009000000270A128A1183160313AE0083160317F9
:10091000480883160313B00083160317470883168D
:100920000313AF000A168A11C0260A128A11831611
:1009300003132E08B7002D08B6000A168A11FF25EA
:100940000A128A11831603133408303E83160317E4
:10095000C900831603133908013E83160317C1002B
:10096000831603133A080318013E003E831603174B
:10097000C200410884008317421C83130008031936
:10098000C22CC32CE12C490883160313AD0039088F
:10099000013E83160317C100831603133A08031898
:1009A000013E003E83160317C200410884008317EE
:1009B000421C831300080A128A1139200A128A1174
:1009C000FA2C831603133908840083173A1C831307
:1009D0000008840083160317490883138000013040
:1009E000FF00831603133908840083173A1C83130E
:1009F0007F088007FF30FF007F0883160317C507B5
:100A0000450A031D042D052D612C831603133C0894
:100A100083160317C200831603133B0883160317BC
:100A2000C10083160313BB0A0319BC0A83160317FC
:100A3000420883120313FF00831603174108840042
:100A4000831203130A128A1100270A128A118316CD
:100A50000317C9004908031D2E2D2F2DF12A8316D7
:100A60000313B901BA010800CF2E25302E06031951
:100A70003A2D3B2D772D2008013EA60021080318B2
:100A8000013E003EA700260884008317271C83131D
:100A9000000803194C2D4D2D632D2E08F000200861
:100AA000013EA60021080318013E003EA7002608CB
:100AB00084008317271C831300080A128A1142201E
:100AC0000A128A11342D200884008317211C8313F5
:100AD000000884002E08831380000130FF002008E6
:100AE00084008317211C83137F088007342DAB01FA
:100AF0007B2D2B17A12D2308A7002208A600A20AF0
:100B00000319A30A2708FF00260884000A128A1185
:100B100000270A128A11AE00A800A9012908003A8C
:100B20000319932DCF2E2808003A0319E72E643AB3
:100B30000319A12D0D3A0319A12D1C3A0319792D82
:100B4000CF2E2B1BA42DA52DCD2D2408840083177B
:100B5000251C83130008A60002308007840A0008C1
:100B6000A70000300318800A800726088400831736
:100B7000271C83130008AC00840A0008AD00AD1FD9
:100B8000C22DC32DE72D0330FF007F08AB04AC0955
:100B9000AD09AC0A0319AD0AE72D240884008317B8
:100BA000251C83130008A60002308007840A000871
:100BB000A70000300318800A8007260884008317E6
:100BC000271C83130008AC00840A0008AD00AE01A6
:100BD000AE0A2E08A60026073A3E84008730031886
:100BE000013EFF000A128A1100270A128A11A7008B
:100BF0000A128A1100270A128A11A80028082D0259
:100C0000031D042E27082C020318072E082E092E78
:100C1000132E0130FF007F08AE0705302E06031D9E
:100C2000122E132EE92D2B0803390319182E192E15
:100C3000542E2008013EA60021080318013E003E64
:100C4000A700260884008317271C831300080319B4
:100C50002A2E2B2E412E2D30F0002008013EA6001A
:100C600021080318013E003EA700260884008317D0
:100C7000271C831300080A128A1142200A128A11C3
:100C8000542E200884008317211C8313000884003D
:100C90002D30831380000130FF002008840083176B
:100CA000211C83137F088007831203132E08AA00D8
:100CB000C42E0A30F7000030F8002A08A6002607E4
:100CC0003A3E840087300318013EFF000A128A1161
:100CD00000270A128A11F0000A128A1100270A124C
:100CE0008A11F1002D08F3002C08F2000A168A116F
:100CF0007C260A128A117108FA007008F9000A1697
:100D00008A118A250A128A117708303E831203134A
:100D1000AE002008013EA60021080318013E003E57
:100D2000A700260884008317271C831300080319D3
:100D30009A2E9B2EB12E2E08F0002008013EA60010
:100D400021080318013E003EA700260884008317EF
:100D5000271C831300080A128A1142200A128A11E2
:100D6000C42E200884008317211C831300088400EC
:100D70002E08831380000130FF00200884008317B1
:100D8000211C83137F088007FF30FF007F08831238
:100D90000313AA072A0A031DCE2ECF2E592E831223
:100DA00003132308A7002208A600A20A0319A30A16
:100DB0002708FF00260884000A128A1100270A1259
:100DC0008A11AE002E08031DE62EE72E352D0800F1
:100DD00083160313B1003008AD0031080A168A11DA
:100DE0001E250A128A11831603132F08AD0031083D
:100DF000013E0A168A111E250A128A1108000800EF
:100E0000FF1B0A2F83137F1883170008840A031916
:100E1000FF0A08007F087F398A000408840A031942
:100E2000FF0A82009B348834123400347F348834C3
:100E3000B4340034863488341C340234A134883409
:100E4000383404348D34883430342A34943488343B
:100E500090347E34783488342034FD3459348834E6
:100E60000134FD34873402340834883403341334B5
:100E700088340434013400340A34003464340034D7
:100E8000E834033410342734013400340134083496
:100E9000023400340234083400340134023404349F
:100EA0000034003480343F341834723431343F34E9
:100EB000F034FD3475343E344734583463343D34B3
:100EC000583495341D343C348234C434AE343A340E
:100ED000A834783421343934EF34933480343734BF
:100EE000A0349234A734353446345634153434346F
:100EF0000034003400340034C434FF347F343F34D1
:100F00008034EF34FF34BE349034E134A9343E34BD
:100F1000EC3482347634BE348234AD342B343E34F7
:100F20000E343C34C334BD348734D13413343D34AF
:100F300041347834D334BB347A3401344D346F3493
:100F40006E34693474346F34723461342F344734FE
:100F50007234613476346134003451347534613420
:100F60006E3474342034533465346E3473346F34D7
:100F70007234653473340034543465346D347034F1
:100F80006F34203441346D346F34733474347234BC
:100F9000613400344D3465346D346F3472346934E7
:100FA0006134203443346834653469346134003446
:100FB00049346E346934633469346F3420347634A0
:100FC00031342E34353433342D3400344E346534DA
:100FD0006E34683475346D34203444346134643490
:100FE0006F3400345434753464346F3420344C34EA
:100FF00069346D3470346F340034323420347334D7
:1010000065346E3473346F34723465347334003441
:1010100033342034733465346E3473346F34723443
:1010200065347334003434342034733465346E34AE
:1010300073346F3472346534733400343234313481
:101040002F34303438342F34323430343234333473
:1010500000344D3469346E343D34253464342E34D8
:101060002534643400344D34613478343D342534CF
:1010700064342E3425346434003456346534723488
:10108000203454346F3464346F34733400344D344A
:101090006F346E34693474346F34723461340034B4
:1010A000253464343D34253464342E34253464349A
:1010B000003431342034733465346E3473346F3417
:1010C000723400344D34613478342F344D34693403
:1010D0006E3400344C3469346D347034613472349D
:1010E0000034703470346D343D342534753400343C
:1010F0003134203468346F34723461340034313424
:10110000303420347334653467340034333430344D
:10111000203473346534673400343134303420344F
:101120006D3469346E3400343334303420346D34EB
:1011300069346E34003431342034733465346734A8
:101140000034313420346D3469346E3400347434F6
:10115000653473347434653400344E34003483128F
:101160000313E200EE288316031350080319B9286D
:10117000BA2801290130D00204300A128A114B200A
:101180000A128A15012900300A168A11F8220A1259
:101190008A15F10008300A168A11F8220A128A15F7
:1011A0000A168A110D240A128A1583160313500297
:1011B0000318DB28DC2801290130FF007F08D00755
:1011C00004300A128A114B200A128A1501290130B3
:1011D0000A128A114B200A128A1501296208FC00A2
:1011E000FD017D08003A0319F62801297C08023A1E
:1011F0000319E728013A0319B328073A0319C3284A
:101200000129080083120313E2004D2983160313FA
:101210004B084C0403190D290E2963290130CB0218
:101220000030031CCC03CC0207300A128A114B2079
:101230000A128A1563290030831603134C02063004
:1012400003194B0203182529262963290130CB07EE
:101250000318CC0A0030CC0707300A128A114B2041
:101260000A128A15632901300A128A114B200A12C8
:101270008A156329831603134C08F3004B08F20008
:1012800002300A168A11BD220A128A1501300A128A
:101290008A114B200A128A1563296208FC00FD019D
:1012A0007D08003A0319552963297C08013A03197E
:1012B0003A29033A03193329013A03190629073A4F
:1012C00003191B2963290800F501F11F6829692901
:1012D0007029F009F109F00A0319F10AF501F50A7C
:1012E000F31F732974297D29F209F309F20A0319FE
:1012F000F30A0130FF007F08F506F601F7017008D8
:101300007104031984298529BC29F401F40A93295D
:1013100001300310F00DF10DFF3E031D892901304E
:10132000FF007F08F407F11F9629972988290130CB
:101330000310F60DF70DFF3E031D98297108730287
:10134000031DA42970087202031CA729A829AF292C
:101350007008F2027108031CF303F30276140130E3
:101360000310F10CF00CFF3E031DB0290130F40214
:10137000031DBB29BC29972975080319C029C12958
:10138000C629F609F709F60A0319F70A7708F100E2
:101390007608F000080083160313A2000E2A220824
:1013A0000A168A1168220A128A15332A22080A129A
:1013B0008A155A260A128A15332A22080A168A1111
:1013C000AE220A128A15332A22080A168A11AE2280
:1013D0000A128A15332A22080A128A15AF200A1225
:1013E0008A15332A22080A168A1184220A128A15BB
:1013F000332A22080A168A1192220A128A15332ADF
:1014000022080A128A1502210A128A15332A220892
:101410000A168A1151270A128A15332A5208A00087
:10142000A1012108003A0319162A332A2008003A9C
:101430000319CF29013A0319D629033A0319DD29E3
:10144000013A0319E429073A0319EB29013A031970
:10145000F229033A0319F929013A0319002A0F3A2C
:101460000319072A332A0800831203130714862A54
:1014700083160313300883120313FF00831603132C
:101480002F088400831203130A128A1100270A12FC
:101490008A1583160313B10004300310B10CFF3E0C
:1014A000031D4D2A3108B20032080A168A113B2664
:1014B0000A128A150C3083160313B100B10B5E2A91
:1014C000000083160313300883120313FF008316F2
:1014D00003132F088400831203130A128A110027B2
:1014E0000A128A150A168A113B260A128A150C302E
:1014F00083160313B100B10B7B2A00000130831661
:101500000313AF070318B00A0030B00783160313A4
:10151000300883120313FF00831603132F0884007F
:10152000831203130A128A1100270A128A15003A3D
:10153000031D9B2A9C2A382A0800F90108300A1644
:101540008A11F8220A128A15F5007508F30073074C
:10155000F70000300A168A11F8220A128A15F600DE
:101560000330F00076080A168A11E3220A128A155F
:10157000023E2E3E840087300318013E831203137F
:10158000FF000A128A1100270A128A1599000730F3
:10159000F4007D30F300F30BCB2AF40BCB2A83123B
:1015A000031399010730F4007D30F300F30BD62AC2
:1015B000F40BD62A062B79080F3E0A168A11F82258
:1015C0000A128A15F800780883120313990007306D
:1015D000F4007D30F300F30BEB2AF40BEB2A7908CF
:1015E0000E3E0A168A11F8220A128A15F8007808A7
:1015F0008312031399000730F4007D30F300F30BDE
:10160000FF2AF40BFF2A7908023EF90077087902D5
:10161000031C0B2B0C2BDB2A0800F6000030FA0011
:101620000030F9000030F8000030F70076084C3E3A
:10163000840087300318013E83120313FF000A124F
:101640008A1100270A128A15F200F20DF20D1F0806
:101650007206C33972069F000630F200F20B2E2B81
:101660000000FB01FC01831203139F149F18392B08
:101670003A2B362B831603131E08F2008312031332
:101680001E08F3000030F31BFF30F400F500720871
:10169000F707730803110318013E0319502BF807CD
:1016A000740803110318013E0319572BF907750835
:1016B00003110318013E03195E2BFA070130FB07E3
:1016C0000318FC0A0030FC0700307C0220300319AC
:1016D0007B02031C6C2B6D2B332B7708F2007808F0
:1016E000F3007908F4007A08F50005300310F50CD2
:1016F000F40CF30CF20CFF3E031D762B7308F10083
:101700007208F000080043308400C03083120313D5
:10171000BF000408C0000930C1003F0884008313E3
:101720000008C200BF0A4008840042088000C00AC6
:10173000C10B8D2B3D08F9003C08F8000A30FA0077
:101740000030FB000A168A11BB240A128A157B0896
:1017500083120313CF007A08CE007908CD007808F1
:10176000CC005030AF008830B0000330F0003E08AD
:101770000A168A11E3220A128A15023E2E3E8400BE
:1017800087300318013E83120313FF000A128A11E7
:1017900000270A128A15B100B201B11BB2034F082B
:1017A000B4004E08B3004D08B6004C08B5004330F5
:1017B0000A168A1177230A128A1503148312031357
:1017C0003E0D443E840087300318013EFF000A129C
:1017D0008A1100270A128A15F2003E08BF003F074F
:1017E000443E840087300318013EFF000A128A112C
:1017F00000270A128A150A168A118D240A128A15E0
:101800004330F3000030F4000A168A1106270A124A
:101810008A1508008C1E0D2C0E2C1F2C831203130E
:101820008C1E132C142C1F2C41301A06031D192C4E
:101830001A2C1F2C0A128A159D220A128A158B1E39
:10184000222C232C772C0B1D262C272C772C0230B6
:101850000A168A11BE230A128A1572088316031308
:10186000AB007108AA002A08A30001300310A30DE1
:10187000FF3E031D362C0310230D023E123E840052
:1018800087300318013E83120313FF000A128A11E6
:1018900000270A128A1583160313A8008312031364
:1018A0000A128A1100270A128A1583160313A90047
:1018B00029084E06031D5E2C28084D060319612CCD
:1018C000622C692C0130CD070318CE0A0030CE07F8
:1018D000722C0A128A1557250A128A1583160313C9
:1018E000CD01CE0127308312031381000B118B1D14
:1018F0007A2C7B2C932C0B1C7E2C7F2C932C0A1681
:101900008A11E4230A128A1583160313AC002C08EB
:1019100003198B2C8C2C922C2C080A128A15CB21A3
:101920000A128A150B10831603132708FF002608D6
:101930008A0025088400240E8300FE0E7E0E090016
:101940008316031398168312031398170A168A1125
:10195000EA240A128A150A168A1141230A128A15E4
:101960000A168A11C4250A128A15A730831603178E
:10197000CA008830CB000A168A1199230A128A15E8
:10198000D83083160313AF008730B0000A128A15CF
:1019900034220A128A15AD3083160313AF00883043
:1019A000B0000A128A1534220A128A15831603130C
:1019B000AF0102300A168A1153250A128A151E3009
:1019C00083160313AF008830B0000A128A15342240
:1019D0000A128A150C300A168A115A230A128A151D
:1019E0005D3A0319F42CF52C482D83160313AD0131
:1019F00008300A168A111E250A128A158316031347
:101A0000AD0100300A168A111E250A128A1500300F
:101A100083160313AF00B00002300A128A11E826C1
:101A20000A128A15FF3083160313AF00FF30B0008F
:101A300004300A128A11E8260A128A150030831629
:101A40000313AF00B00006300A128A11E8260A120A
:101A50008A1583160313BF01AD013F080E3E0A1617
:101A60008A111E250A128A150130FF007F0883168D
:101A70000313BF07C8303F02031C3F2D402D2C2D00
:101A80005D30AD000C300A168A111E250A128A1527
:101A90000A168A1128230A128A150A168A11772231
:101AA0000A128A158B17532D0A128A111228003038
:101AB0000A168A11F8220A128A1583120313D60015
:101AC0000330F00056080A168A11E3220A128A151A
:101AD000023E2E3E840087300318013E831203131A
:101AE000FF000A128A1100270A128A15D70008304F
:101AF0000A168A11F8220A128A1583120313D800D3
:101B000006300A168A11BE230A128A157208831239
:101B10000313D1007108D00004300A168A11BE23C5
:101B20000A128A15720883120313D3007108D200B7
:101B30000A168A110F230A128A150230831603131C
:101B40005206031DA42DA52DCD2D83120313D901FB
:101B5000C62D59080A128A150D230A128A15710812
:101B600083120313D5007008D4005508BD00540833
:101B7000BC005908BE000A128A1583230A128A156E
:101B80000130FF007F0883120313D9075708590259
:101B9000031CCB2DCC2DA92D592E03305206031D2D
:101BA000D22DD32D592E83120313DA01532E643014
:101BB0005802031CDC2DDD2DED2D8B120A168A1127
:101BC0000F230A128A15CA30F3008730F4000A1670
:101BD0008A1106270A128A15592E5A080A128A15DE
:101BE0000D230A128A15710883120313DC00700892
:101BF000DB0053085C02031DFF2D52085B02031833
:101C0000022E032E0D2E5C08F3005B08F200043058
:101C10000A168A11BD220A128A15831203135C0860
:101C20005102031D152E5B0850020318182E192EA1
:101C3000232E5C08F3005B08F20006300A168A11B6
:101C4000BD220A128A15831203135C08F3005B0895
:101C5000F2005808FD007D070E3E0A168A11BD22CB
:101C60000A128A150130FF007F0883120313D80778
:101C70005808F00008300A168A1160240A128A15E2
:101C8000831203135C08BD005B08BC005A08BE0049
:101C90000A128A1583230A128A150130FF007F0871
:101CA00083120313DA0757085A02031C582E592EC1
:101CB000D72D080083120313E400EC2F83160313BF
:101CC00051080319642E652EFF2F0130D102013017
:101CD0000A128A114B200A128A15FF2F063083162A
:101CE000031351020318752E762EFF2F0130FF00CB
:101CF0007F08D10701300A128A114B200A128A1577
:101D0000FF2F0A168A110F230A128A1500300A16AD
:101D10008A11F8220A128A1583120313E90003308C
:101D2000F00069080A168A11E3220A128A15023E97
:101D30002E3E840087300318013E83120313FF00F8
:101D40000A128A1100270A128A15EA00EC01C52E30
:101D50006C080A128A150D230A128A15710883125B
:101D60000313EF007008EE006F08BD006E08BC00A2
:101D70006C08BE000A128A1583230A128A150130E4
:101D8000FF007F0883120313EC076A086C02031C30
:101D9000CA2ECB2EA82E02300A128A114B200A120C
:101DA0008A15FF2F0A168A110F230A128A15083086
:101DB0000A168A11F8220A128A1583120313EB00FD
:101DC00006300A168A11BE230A128A157208831277
:101DD0000313E6007108E50004300A168A11BE23D9
:101DE0000A128A15720883120313E8007108E700CB
:101DF000ED01842F6B086D07E200E301E30D63083A
:101E0000803AFF0080307F02031D082F6430620299
:101E1000031C0B2F0C2F1C2F8B120A168A110F2359
:101E20000A128A15CA30F3008730F4000A168A11A4
:101E300006270A128A158A2F831203136D080A12C5
:101E40008A150D230A128A15710883120313EF00F5
:101E50007008EE0068086F02031D302F67086E02DD
:101E60000318332F342F3E2F6F08F3006E08F20053
:101E700004300A168A11BD220A128A15831203132E
:101E80006F086602031D462F6E0865020318492F6E
:101E90004A2F542F6F08F3006E08F20006300A161E
:101EA0008A11BD220A128A15831203136F08F300E8
:101EB0006E08F2006B08E20062070E3E0A168A11F5
:101EC000BD220A128A150130FF007F088312031316
:101ED000EB076B08F00008300A168A1160240A121A
:101EE0008A15831203136F08BD006E08BC006D08CD
:101EF000BE000A128A1583230A128A150130FF00D8
:101F00007F0883120313ED076A086D02031C892FF3
:101F10008A2FFA2E03300A128A114B200A128A15D0
:101F2000FF2F04300A128A114B200A128A15FF2F44
:101F300005300A128A114B200A128A15FF2F06302B
:101F40000A128A114B200A128A15FF2F02300A1634
:101F50008A11BE230A128A15720883160313CC0055
:101F60007108CB0007300A128A114B200A128A1519
:101F7000FF2F00300A168A11F8220A128A158316DA
:101F80000313CF0008300A128A114B200A128A1557
:101F9000FF2F83160313510883120313E200E3019A
:101FA0006308003A0319D52FFF2F6208003A03197E
:101FB000812E013A0319D22E033A0319912F013AC7
:101FC0000319982F073A03199F2F013A0319A62FD7
:101FD000033A0319B92FFF2F6408E200E3016308F5
:101FE000003A0319F42FFF2F6208013A0319C92F91
:101FF000023A03195E2E073A03196E2EFF2F0800CE
:1024D00001300A128A114B200A168A110800640082
:1024E0008001840A0406031900340406702A273088
:1024F00083120313810083160313811281110730A5
:1025000081040B118B120800FC0002307C06031DB5
:102510008A2A8B2A912A01300A128A114B200A1624
:102520008A110800FC0002307C06031D982A992AB3
:102530009F2A01300A128A114B200A168A110800BC
:10254000473488349E3487343D3488346234883448
:102550006A348834BC348734AD348734FC000230AC
:102560007C06031DB42AB52ABC2A8B1201300A123C
:102570008A114B200A168A110800F4007308F00033
:1025800074080A168A1160240A168A117208F0006B
:102590007408013E0A168A1160240A168A1108007E
:1025A0007E088A007F0882000A168A11D0220A1645
:1025B0008A118000840A04087D0603190034FF0A8A
:1025C0000319FE0AD42AF200F101721CE82AE92A52
:1025D000ED2A7008FF007F08F1070310F00D0310CB
:1025E000F20C7208031DF52AF62AE52A7108080084
:1025F000F0006400831603178C18FF2A002BF92AB9
:102600007008831203178D003F30FF007F08831688
:1026100003178C050C14831203170C08080083128F
:102620000313071000300A168A1136240A168A117D
:1026300001300A168A1136240A168A110330F30073
:102640009730F200F20B222BF30B222B272B0800E2
:10265000FF308316031385001F308316031788008D
:10266000831603139F121F16831203131F083F398B
:1026700040389F00831603139F17831203131F1400
:102680000800831603178711831603130713871790
:10269000981618128312031398171816831603132B
:1026A0008C160B1718111930990018138312031385
:1026B0008C12080083160313AD0064008316031701
:1026C0008C18632B662B831603135D2B8316031361
:1026D0002D08831203178D003F30FF007F088316FB
:1026E00003178C050C14831203170C0808008312BF
:1026F0000313B7003708BA00BB013130B80000300F
:10270000B9003A30A0000030A1002F08A200300824
:10271000A3003830A4000030A5000A128A11342525
:102720000A168A11831203133A0884008313800166
:10273000080083160317CE010130CF00CC30CC0047
:102740000130CD00CE3083160313B9000130BA003A
:10275000831603174A0883160313BB008316031757
:102760004B0883160313BC00CC30BD000130BE0003
:102770000A128A11F0220A168A110800F50075085B
:10278000013E0A168A11F8220A168A11F300F40192
:102790007308F6007408F70075080A168A11F82203
:1027A0000A168A11F300F4017308F400F3017608A5
:1027B0007307F60077080318770A7407F70077089D
:1027C000F2007608F10008000230F2000430F10057
:1027D000BA30F000F00BEA2BF10BEA2BF20BEA2BEC
:1027E000000083120313061AF62BF72BF92B013086
:1027F0000C2C861AFC2BFD2BFF2B02300C2C061BFD
:10280000022C032C052C03300C2C861B082C092CC5
:102810000B2C04300C2C00300800F200F40171087D
:102820000319132C142C342CF301F30A1D2C031060
:10283000F10D0130FF007F08F307F11F202C212C40
:10284000172C0310F40D71087202031C282C292C7C
:102850002C2C7108F20274140310F10C0130F302F5
:10286000031D332C342C212C74080800F100711C3A
:102870003A2C3B2C3F2C831203130715422C831256
:1028800003130711F11C452C462C482C0615492C26
:102890000611711D4C2C4D2C4F2C8614502C86107B
:1028A000F11D532C542C562C0614572C06100D30A9
:1028B000F000F00B592C83120313871487100800C3
:1028C000F100831603178C18662C672C612C710895
:1028D000831203178D0070088C003F30FF007F08C3
:1028E000831603178C058312031303108B1F792C97
:1028F0007A2C7B2C03148B13831603170C1555307D
:102900008D00AA308D008C140C1183120313031C4C
:102910008A2C8B2C8C2C8B170800F5008312031348
:102920000710A02C08300A168A1136240A168A11BC
:10293000B02C0C300A168A1136240A168A11B02CD3
:102940007508F300F4017408003A0319A82CB02CA0
:102950007308013A0319922C033A0319992CB02CED
:1029600072080A168A1136240A168A110D30F300ED
:10297000F30BB82C08007B08F1007A08F000790806
:10298000F3007808F2000A128A1564210A168A11E7
:10299000710883120313A3007008A2007B08F100E2
:1029A0007A08F0007908F3007808F2000A168A1114
:1029B000A7270A168A11710883120313A100700851
:1029C000A0002308FB002208FA002108F9002008D3
:1029D000F8000800831203138613061386120612EA
:1029E000831603138617861BF62CFA2C8316031303
:1029F0000617FD2C831603130613061B002D042D4A
:102A0000831603138616072D831603138612861A60
:102A10000A2D0E2D831603130616112D831603138C
:102A200006128113F03095001230831603178900C7
:102A3000F0308316031396008B15080083160313DA
:102A4000AE00831603178C18262D272D212D8316F3
:102A500003132E08831203178D00831603132D080A
:102A6000831203178C003F30FF007F088316031783
:102A70008C058312031303108B1F3F2D402D412D16
:102A800003148B13831603170C1555308D00AA30D1
:102A90008D008C140C1183120313031C502D512D27
:102AA000522D8B17080083160313B20083120313F1
:102AB0000710682D08300A168A113B260A168A115B
:102AC0007A2D0C300A168A113B260A168A117A2DA5
:102AD000831603133208B000B1013108003A03191C
:102AE000722D7A2D3008013A03195A2D033A031931
:102AF000612D7A2D831603132F080A168A113B269F
:102B00000A168A110C3083160313B000B00B862D01
:102B1000000008007708780403198F2D902DBF2D31
:102B2000FB01FB0A9E2D01300310F70DF80DFF3E4F
:102B3000031D942D0130FF007F08FB07F81FA12D16
:102B4000A22D932D78087A02031DA82D770879020B
:102B5000031CAB2DAC2DB22D7708F9027808031CAD
:102B6000FA03FA0201300310F80CF70CFF3E031DC4
:102B7000B32D0130FB02031DBE2DBF2DA22D7A08FF
:102B8000F8007908F7000800831603130610861072
:102B90000611071187100710831203130610861001
:102BA000061107118710071002300A168A113B26FA
:102BB0000A168A1108300A168A113B260A168A114B
:102BC00000300A168A113B260A168A1100300A16AE
:102BD0008A113B260A168A110C300A168A113B26E6
:102BE0000A168A1100300A168A113B260A168A1123
:102BF00006300A168A113B260A168A110800831627
:102C00000313340835040319062E072E362EB80197
:102C1000B80A152E01300310B40DB50DFF3E031D8B
:102C20000B2E0130FF007F08B807B51F182E192E94
:102C30000A2E35083702031D1F2E34083602031CE6
:102C4000222E232E292E3408B6023508031CB70382
:102C5000B70201300310B50CB40CFF3E031D2A2E41
:102C60000130B802031D352E362E192E3708B50057
:102C70003608B400080083160313AE002E1C412E44
:102C8000422E462E831203130715492E8312031377
:102C9000071183160313AE1C4E2E4F2E532E831294
:102CA00003130615562E83120313061183160313FE
:102CB0002E1D5B2E5C2E602E831203138614632E52
:102CC00083120313861083160313AE1D682E692E1C
:102CD0006D2E831203130614702E83120313061035
:102CE0000C3083160313AD00AD0B742E000083125D
:102CF0000313871487100800F501F60170087104AA
:102D00000319832E842EBB2EF401F40A922E013077
:102D10000310F00DF10DFF3E031D882E0130FF0062
:102D20007F08F407F11F952E962E872E0130031091
:102D3000F50DF60DFF3E031D972E71087302031D5E
:102D4000A32E70087202031CA62EA72EAE2E7008AA
:102D5000F2027108031CF303F3027514013003102F
:102D6000F10CF00CFF3E031DAF2E0130F402031DE9
:102D7000BA2EBB2E962E7608F1007508F0000800DA
:102D800083160313B201B3012D082E040319C92EB3
:102D9000CA2E012FB101B10AD82E01300310AD0D9A
:102DA000AE0DFF3E031DCE2E0130FF007F08B107A0
:102DB000AE1FDB2EDC2ECD2E01300310B20DB30D75
:102DC000FF3E031DDD2E2E083002031DE92E2D08C7
:102DD0002F02031CEC2EED2EF42E2D08AF022E0830
:102DE000031CB003B002321401300310AE0CAD0C62
:102DF000FF3E031DF52E0130B102031D002F012FF0
:102E0000DC2E3308AE003208AD0008008312031335
:102E10000714402F7408FF00730884000A128A11F7
:102E200000270A168A11F50004300310F50CFF3E46
:102E3000031D152F7508F60076080A168A11362428
:102E40000A168A110D30F500F50B242F7408831231
:102E50000313FF00730884000A128A1100270A1660
:102E60008A110A168A1136240A168A110D30F500C5
:102E7000F50B382F0130F3070318F40A0030F4077C
:102E8000740883120313FF00730884000A128A1166
:102E900000270A168A11003A031D4F2F502F0A2FC0
:102EA000080083120313E200902F831603134F08C8
:102EB00003195B2F5C2FA62F0130CF0208300A12B6
:102EC0008A114B200A168A11A62F0330831603138A
:102ED0004F0203186C2F6D2FA62F0130FF007F08C3
:102EE000CF0708300A128A114B200A168A11A62F22
:102EF00001300A128A114B200A168A11A62F831656
:102F000003134F08F00000300A168A1160240A16D5
:102F10008A1101300A128A114B200A168A11A62F33
:102F20006208FC00FD017D08003A0319982FA62FC6
:102F30007C08013A03197F2F033A0319782F013ACD
:102F40000319552F073A0319652FA62F0800F5011D
:102F5000F31FAB2FAC2FB32FF209F309F20A0319B9
:102F6000F30AF501F50AF11FB62FB72FBC2FF009B0
:102F7000F109F00A0319F10A700871040319C12F4D
:102F8000C22FF12FF401F40AD02F01300310F00DFD
:102F9000F10DFF3E031DC62F0130FF007F08F4072F
:102FA000F11FD32FD42FC52F71087302031DDA2F01
:102FB00070087202031CDD2FDE2FE42F7008F2026E
:102FC0007108031CF303F30201300310F10CF00C41
:102FD000FF3E031DE52F0130F402031DF02FF12FFA
:102FE000D42F75080319F52FF62FFB2FF209F309DB
:102FF000F20A0319F30A7308F1007208F0000800DE
:08400000FF3FFF3FFF3FFF3FC0
:04400E00E12CFF3F63
:00000001FF
